{
  "contractName": "TweetherICO",
  "abi": [
    {
      "constant": true,
      "inputs": [],
      "name": "RATE",
      "outputs": [
        {
          "name": "",
          "type": "uint256"
        }
      ],
      "payable": false,
      "stateMutability": "view",
      "type": "function"
    },
    {
      "inputs": [
        {
          "name": "_tokenAddr",
          "type": "address"
        }
      ],
      "payable": false,
      "stateMutability": "nonpayable",
      "type": "constructor"
    },
    {
      "payable": true,
      "stateMutability": "payable",
      "type": "fallback"
    }
  ],
  "bytecode": "0x60806040526103e860015534801561001657600080fd5b506040516020806102bd83398101806040528101908080519060200190929190505050806000806101000a81548173ffffffffffffffffffffffffffffffffffffffff021916908373ffffffffffffffffffffffffffffffffffffffff16021790555050610234806100896000396000f300608060405260043610610041576000357c0100000000000000000000000000000000000000000000000000000000900463ffffffff168063664e970414610151575b600061004c3461017c565b90506000809054906101000a900473ffffffffffffffffffffffffffffffffffffffff1673ffffffffffffffffffffffffffffffffffffffff1663a9059cbb33836040518363ffffffff167c0100000000000000000000000000000000000000000000000000000000028152600401808373ffffffffffffffffffffffffffffffffffffffff1673ffffffffffffffffffffffffffffffffffffffff16815260200182815260200192505050602060405180830381600087803b15801561011257600080fd5b505af1158015610126573d6000803e3d6000fd5b505050506040513d602081101561013c57600080fd5b81019080805190602001909291905050505050005b34801561015d57600080fd5b506101666101b4565b6040518082815260200191505060405180910390f35b60006101ad60015461019f670de0b6b3a7640000856101ba90919063ffffffff16565b6101d090919063ffffffff16565b9050919050565b60015481565b600081838115156101c757fe5b04905092915050565b6000808314156101e35760009050610202565b81830290508183828115156101f457fe5b041415156101fe57fe5b8090505b929150505600a165627a7a723058207522c2133e3b8fba6a76befadfbc5e3e622fa4cfa1dce7e6203dae78fb209ccc0029",
  "source": "pragma solidity ^0.4.19;\n\nimport \"./TweetherToken.sol\";\nimport \"zeppelin-solidity/contracts/math/SafeMath.sol\";\n\ncontract TweetherICO {\n    using SafeMath for uint256;\n\n    TweetherToken token;\n    uint256 public RATE = 1000;\n\n    function TweetherICO(address _tokenAddr) public {\n        token = TweetherToken(_tokenAddr);\n    }\n\n    function _getTokenAmount(uint256 _weiAmount) internal view returns (uint256) {\n        return _weiAmount.div(10 ** 18).mul(RATE);\n    }\n\n    function () public payable {\n        uint256 _amount = _getTokenAmount(msg.value);\n        token.transfer(msg.sender, _amount);\n    }\n\n}",
  "sourcePath": "/Users/rldan/space/tweether/contracts/token/TweetherICO.sol",
  "compiler": {
    "name": "solc",
    "version": "0.4.23+commit.124ca40d.Emscripten.clang"
  },
  "schemaVersion": "2.0.0",
  "updatedAt": "2018-05-04T02:41:35.310Z"
}